:100000000C94E7020C94280E0C944F0E0C940F03E2
:100010000C940F030C940F030C940F030C943717DC
:100020000C940F030C940F030C940F030C940F0308
:100030000C940F030C940F030C940F030C940F03F8
:100040000C94760E0C940F030C9403150C94351538
:100050000C940F030C940F030C940F030C940F03D8
:100060000C94A7120C940F03756E7361666520667D
:1000700072616D652072656A656374656420286DC0
:100080006F7265207468616E206F6E6520636174A5
:10009000686F6465206F6E20612074756265290049
:1000A0005254432072656164206661696C65642006
:1000B0006F72206F7363696C6C61746F72207374FC
:1000C0006F707065643A20646973706C6179204F59
:1000D0004646005254432074696D6520696E76610E
:1000E0006C6964206F7220525443206D6973736988
:1000F0006E673A20646973706C61792073746179FA
:1001000073204F46462E205365742074696D652018
:10011000746F2073746172742E00485620464155E6
:100120004C54206973206C61746368656420667246
:100130006F6D206265666F726520746865207265F8
:100140007365743A204856207374617973204F4662
:10015000462E204D656173757265205450342C20F5
:10016000666978207468652063617573652C2074F6
:1001700068656E2073656E6420434C45415246416C
:10018000554C542E0072657365743A2062726F7715
:100190006E2D6F75740072657365743A20776174A3
:1001A0006368646F67004E697869652052657620E0
:1001B000432028554E56414C494441544544205013
:1001C000524F544F54595045204649524D57415271
:1001D000452900436F6D6D616E64733A205354413D
:1001E000545553207C20542068683A6D6D3A7373DF
:1001F000207C203132207C203234207C20534C451E
:1002000045502068683A6D6D2068683A6D6D207CB5
:1002100020534C454550204F4646207C2048564FA1
:100220004646207C2052554E207C2045584552435E
:10023000495345207C20434C4541524641554C543E
:10024000004661756C7420636C65617265642E2074
:100250004856206D61792072657374617274206EE6
:100260006F772069662074686520646973706C61BB
:10027000792069732077616E7465643A2062652025
:10028000737572652054503420776173206D6561F9
:10029000737572656420616E6420746865206361A3
:1002A0007573652066697865642E004F4B004F4B6F
:1002B000004F4B004F4B0045525220626164207446
:1002C000696D65206F7220525443004F4B20746952
:1002D0006D6520736574006F6666006F6E00202088
:1002E000736C6565702000323468003132680062DA
:1002F0007574746F6E73205345542F482F4D200032
:100300006661756C743A20002020737461746520F6
:1003100000202048562073656E7365200056494EB4
:100320002000494E56414C4944202873657420777B
:1003300069746820542068683A6D6D3A7373206F51
:1003400072206C6F6E672D70726573732053455405
:10035000290074696D6520005254432077726974D6
:1003600065206661696C65640054696D6520736120
:1003700076656420746F2052544300446973706C36
:10038000617920736C656570204F4646004469733F
:10039000706C617920736C656570204F4E0032344B
:1003A0002D686F7572206D6F64650031322D686F36
:1003B0007572206D6F64650053657420686F757287
:1003C000732028482F4D20746F206368616E676525
:1003D0002C2053455420746F20636F6E74696E75C2
:1003E000652900536574206D6F64652074696D65BF
:1003F00064206F757420286E6F7468696E6720734F
:10040000617665642900202873656E7365207265C6
:100410006164696E67206F6E6C79202D207374693A
:100420006C6C206D65617375726520545034206268
:1004300065666F726520616E7920636F6E746163AB
:100440007429004856206465636179656420746F7F
:10045000200020332073206166746572206F666609
:100460002E20426C6565646572206F722073776917
:10047000746368206661756C74207375737065634E
:100480007465642E20446F206E6F74206F70656EEB
:100490002074686520636173652E005741524E4990
:1004A0004E473A204856207374696C6C20004856B9
:1004B0002075703A2000206F75747369646520316F
:1004C000302E382D31332E322056202855534220DD
:1004D000706F77657220616C6F6E652063616E6E00
:1004E0006F742072756E2074686520747562657310
:1004F0002900485620726566757365643A2056492E
:100500004E20004856204641554C54206C6174637F
:1005100068656420696E20454550524F4D3A2073FE
:1005200075727669766573207265736574732E20B3
:1005300046696E64207468652063617573652C205C
:100540006D656173757265205450342C2074686534
:100550006E2073656E6420434C4541524641554CB4
:10056000542E004856206F66663A20002056000040
:100570000000080002010000030407000000000062
:10058000000000010204081020408001020408104D
:1005900020010204081020040404040404040402DA
:1005A000020202020203030303030300000000230C
:1005B000002600290000000000250028002B000074
:1005C000000000240027002A00026515FB181124F2
:1005D0001FBECFEFD8E0DEBFCDBF12E0A0E0B1E09C
:1005E000E4E0F4E302C005900D92AC38B107D9F70E
:1005F00024E0ACE8B2E001C01D92AC34B207E1F7F0
:1006000012E0C7EED2E004C02197FE010E94CD198E
:10061000C53ED107C9F70E9494170C94001A0C9498
:100620000000FF920F931F93CF93DF930EEC12E025
:10063000D0E0C0E0F801F1908F01CE010E94EA19EC
:10064000F81621F06F2DCE010E94F2192196C730C5
:10065000D10581F78EEC92E0DF91CF911F910F9140
:10066000FF9008950F931F93CF93DF930EEC12E04A
:10067000D0E0C0E0CE010E94EA19F80181938F0119
:100680002196C730D105B1F78091CE02833CB1F4F9
:100690008091CF02823090F48091D002823070F449
:1006A0008091D1029091D202803A954038F48091A5
:1006B000D3029091D402803A9540C8F083EC8093A5
:1006C000CE021092CF021092D00284E695E0909371
:1006D000D2028093D10284EA91E09093D402809375
:1006E000D302DF91CF911F910F910C941103DF91F1
:1006F000CF911F910F9108950C94110361E08DE04B
:100700000E94B70F61E089E00E94B70F61E08AE0C4
:100710000C94B70F2F923F924F925F926F927F92FD
:100720008F929F92AF92BF92CF92DF92EF92FF9201
:100730000F931F93CF93DF93CDB7DEB760970FB6BC
:10074000F894DEBF0FBECDBF922EA32EB42E588BD1
:100750006B01182F9F87052F00780D8790789E8753
:1007600020E030E040E0502F60E070E080E0A0E06A
:100770000E94C11909F0AAC01D821E821F82E0E4F6
:10078000E88719861A861B86EC87E0E08E2F63E0E7
:100790000E940C19292F8E2F0E941819482E42945E
:1007A000440C90EE49220AE0209F400C11241B8249
:1007B0001C82212C3D84612C712C812CFE85B0E0A3
:1007C000A0E0512C7201EA0EFB1E21E030E040E077
:1007D00050E060E070E080E090E00E2D0E947F1914
:1007E0000B81022B0B832C81232B2C83242A352A6B
:1007F000662A772A882AF92B1196AA30B10511F7B3
:1008000009210983202F8C818A218A83382F4B2C40
:100810004220442D58885320552D0C2D0621602F41
:10082000ED2CE7207E2DF12EF8208F2DBF85BF23E4
:100830009B2FAFEF0E94B519A9812A23AA813A23E1
:100840004421552160237E218F219B23A0E00E941B
:10085000C119E1F50D812B81022B0D838E819C81C5
:10086000892B8E83AF81A229AF830885032908874E
:100870002985262929878A8587298A879B8598291A
:100880009B87AC85AF2BAC87EF5FE63009F07ECF5E
:100890002D8120953E8130954F814095502F509568
:1008A00069856095782F7095892F80959A2F9095FE
:1008B00029213A214B21E8895E236C217D21812366
:1008C0000F859023A0E00E94C11959F081E0809328
:1008D000BD02912CA12CB12C188AC12CD12C10E076
:1008E0001F860E947E038FE3E82EF12C292D3A2DDE
:1008F0004B2D5889B601812F9F850E2D0E949A1984
:10090000622F609561708AE00E94B70F84E090E0EA
:100910000E94F10E60E08DE00E94B70F84E090E04D
:100920000E94F10E61E08DE00E94B70F82E090E03E
:100930000E94F10E21E0E21AF108C0F660E089E0C1
:100940000E94B70F84E090E00E94F10E61E089E020
:1009500060960FB6F894DEBF0FBECDBFDF91CF918A
:100960001F910F91FF90EF90DF90CF90BF90AF90CD
:100970009F908F907F906F905F904F903F902F90BF
:100980000C94B70F60E086E00E94B70F20E030E0E3
:1009900040E050E060E070E080E090E00C948A037A
:1009A0000F931F93CF93DF93082F18E0D0E0C0E0A0
:1009B000802F0E94370FC80FD91F1150C9F7CE01E1
:1009C00023E0969587952A95E1F7DF91CF911F91C6
:1009D0000F9108958EE00E94D0049C01A3EFB1E135
:1009E0000E9470192FEF33E040E050E00E944E1952
:1009F000C90108958FE00E94D0049C01ADE1B1E0EF
:100A00000E9470192FEF33E040E050E00E944E1931
:100A1000C9010895CF93DF936AE070E00E94261920
:100A2000EC014AE050E082E593E00E94FC166EE2A1
:100A300082E593E00E94F5154AE050E0BE0182E5B0
:100A400093E00E94FC166CE675E082E593E0DF918E
:100A5000CF910C94D115CF93DF93EC0160E087E048
:100A60000E94B70F0E94C2048091CD028150823053
:100A700060F40E94C00E6093BF027093C002809326
:100A8000C1029093C202109227018091CD0283305F
:100A900011F01092CD02209781F08881882369F0AF
:100AA00063E675E082E593E00E94D115BE0182E520
:100AB00093E0DF91CF910C941216DF91CF910895BE
:100AC000CF93DF932091CD022330E9F0EC010E9417
:100AD0002B0583E08093CD02D0932501C0932401A0
:100AE00080E290E00E94EA19853A29F065EA80E206
:100AF00090E00E94F21963E075E082E593E0DF91F7
:100B0000CF910C940016DF91CF910895CF93DF938E
:100B10008091CD02811134C00E94FA04EC018C5600
:100B200091094997C0F08091BE02811129C081E0EE
:100B30008093BE0262EF74E082E593E00E94D115DB
:100B4000CE010E940A0566EB74E082E593E0DF9136
:100B5000CF910C9400161092BE020E94C20461E074
:100B600087E00E94B70F81E08093CD020E94C00E03
:100B70006093C3027093C4028093C5029093C6022F
:100B8000DF91CF910895CF92DF92EF92FF92CF93B2
:100B9000DF930E94C00E6B017C010E94EA04EC010D
:100BA000CD3687E0D80750F087E391E0DF91CF9111
:100BB000FF90EF90DF90CF900C9460058091CD0274
:100BC0008130C9F5CC3D85E0D807F0F082E0809314
:100BD000CD02C092C302D092C402E092C502F0924C
:100BE000C6026EEA74E082E593E00E94D115CE0160
:100BF0000E940A0582E593E0DF91CF91FF90EF908C
:100C0000DF90CF900C94FC158091C3029091C402A8
:100C1000A091C502B091C602C81AD90AEA0AFB0A15
:100C20008DEDC81685E0D806E104F10408F44AC049
:100C300086E491E0BBCF823039F4CC3DD54008F05A
:100C400041C080E891E0B2CF8091270181113AC084
:100C50008091BF029091C002A091C102B091C202E6
:100C6000C81AD90AEA0AFB0A89EBC8168BE0D8062B
:100C7000E104F10438F181E080932701C536D10504
:100C8000A8F06BE974E082E593E00E94D115CE01F3
:100C90000E940A0562E574E082E593E0DF91CF915E
:100CA000FF90EF90DF90CF900C94001663E474E017
:100CB00082E593E00E94D115CE010E940A0566E00C
:100CC00074E0EACFDF91CF91FF90EF90DF90CF906B
:100CD00008954F925F926F927F928F929F92AF9200
:100CE000BF92EF92FF920F931F93CF93DF93EC018C
:100CF00088810E94E50F7C0111E0892B09F010E04A
:100D00000E94C00E2A81211729F01A836B837C83ED
:100D10008D839E8329818B809C80AD80BE802B013A
:100D20003C01481859086A087B08530142013EE11A
:100D300083169104A104B10410F0121324C02223DD
:100D400051F12B85211127C00F81188529853A85FE
:100D5000601B710B820B930B613D77408105910500
:100D6000D0F081E08B8782E0DF91CF911F910F91CE
:100D7000FF90EF90BF90AF909F908F907F906F907B
:100D80005F904F9008951983EF2839F46F83788727
:100D900089879A871B8680E0E7CF8B8591E089273A
:100DA000E3CF0E94C00E605D7A488F4F9F4F6093E3
:100DB000B5027093B6028093B7029093B80208957B
:100DC000CF93DF93CDB7DEB728970FB6F894DEBF89
:100DD0000FBECDBF62E573E082E593E00E94D115BE
:100DE0008091CB02882309F4DDC08091C9028A304A
:100DF00028F460E382E593E00E94F5154AE050E0B4
:100E00006091C90282E593E00E94E3166AE382E5FD
:100E100093E00E94F5158091C8028A3028F460E3BF
:100E200082E593E00E94F5154AE050E06091C80227
:100E300082E593E00E94E3166AE382E593E00E9474
:100E4000F5158091C7028A3028F460E382E593E0CB
:100E50000E94F5154AE050E06091C70282E593E0F8
:100E60000E94EA166DE173E082E593E00E94D115DD
:100E70000E94FA040E940A0561E173E082E593E0B2
:100E80000E94D1150E94EA040E940A0568E073E0FE
:100E900082E593E00E94D11588E0EFE2F1E0DE0107
:100EA000119601900D928A95E1F78091CD0290E024
:100EB000880F991F21E030E02C0F3D1F820F931FF8
:100EC000FC016081718182E593E00E94121680919D
:100ED000CD02833071F460E073E082E593E00E941C
:100EE000D115609124017091250182E593E00E9463
:100EF00012166FEE72E082E593E00E94D11582E057
:100F00000E94E50F61E070E0892B11F070E060E075
:100F10004AE050E082E593E00E94BD1683E00E9423
:100F2000E50F61E070E0892B11F070E060E04AE0CD
:100F300050E082E593E00E94BD1684E00E94E50F38
:100F400061E070E0892B11F070E060E04AE050E071
:100F500082E593E00E94C4168091CF0267EE72E0B2
:100F6000882311F06BEE72E082E593E00E94D115C8
:100F70006EED72E082E593E00E94D1158091D0027F
:100F800067ED72E0882311F06BED72E082E593E08B
:100F900028960FB6F894DEBF0FBECDBFDF91CF917C
:100FA0000C94001662E273E082E593E00E94001662
:100FB00059CFFC01908180ED890F8A3068F48181DE
:100FC00080538A3048F490532AE0929F800D112478
:100FD000FB01808381E0089580E008950F931F93C3
:100FE0008091CA0281114AC09091CD02933051F193
:100FF0008091CC02811144C08091CB02882311F1F1
:101000009091D0029923F1F04091D3025091D402F3
:101010006091D1027091D2024617570799F09091D2
:10102000C9022091C80230E0ECE39E9F200D311DE3
:1010300011246417750748F42617370718F024178A
:10104000350730F01F910F91089526173707B8F331
:101050000E94C00E0091B5021091B6022091B70215
:101060003091B802AB01BC01401B510B620B730BFA
:1010700081E0141615061606170624F780E0E2CF65
:1010800081E0E0CF5F926F927F928F929F92AF92BA
:10109000BF92CF92DF92EF92FF920F931F93CF9365
:1010A000DF9300D000D000D0CDB7DEB7209126016D
:1010B00027FD1AC08E01095F1F4FFE013196022ED7
:1010C000000C330B2E1B3F0B4AE0E42EF12CC90120
:1010D0008E0F9F1FB7010E943A198193E017F10705
:1010E000B1F76624639464C03091CF028091CC0242
:1010F000332331F020E030E0811107C021E003C04C
:1011000020E0811102C03091C702E091C8028091B5
:10111000C902222339F06CE00E940C19892F911129
:1011200001C08CE04AE0642F0E940C19582F89837B
:101130009A838E2F0E940C198B839C83832F0E948D
:101140000C198D839E83222321F0511102C08FEF51
:1011500089830E94C00E20E931E040E050E00E9407
:101160004E19BA01A901417055276627772780914A
:10117000CC02813049F4452B462B472B09F4B1CFE3
:101180008FEF8A838983ADCF823049F4452B462B7C
:10119000472B09F4A6CF8FEF8C838B83A2CF8111CD
:1011A000A0CFE091C7026E2E6094862D8170682ECC
:1011B000FE0131967F01912CA12CB12CA0E0C12C15
:1011C000D12C10E0512CB0E083E0882E9AE0792EEB
:1011D000F70101917F010A3000F58B2F682D0E94E5
:1011E0000C19979D000D11248B2F0E9418198295C0
:1011F000880F807E080F21E030E040E050E060E0A2
:1012000070E080E090E00E947F19922AA32AB42A1D
:10121000A52BC62AD72A182B592ABF5FB630C1F68C
:10122000662019F0A064689456F8292D3A2D4B2DAC
:101230005A2FB601812F952D0E948A0361E086E026
:1012400026960FB6F894DEBF0FBECDBFDF91CF91CB
:101250001F910F91FF90EF90DF90CF90BF90AF90D4
:101260009F908F907F906F905F900C94B70FFF923C
:101270000F931F93CF93DF93C82FF62E172F042FB2
:1012800068E686EF93E00E9475186C2F86EF93E076
:101290000E940318CF2DD12F0C0F1D2F111DC01729
:1012A000D10731F0699186EF93E00E940318F7CFE0
:1012B00086EF93E00E94F81891E0811190E0892F69
:1012C000DF91CF911F910F91FF900895EF92FF92C0
:1012D0000F931F93CF93DF93C82F062FE72E142F62
:1012E00068E686EF93E00E9475186C2F86EF93E016
:1012F0000E94031860E086EF93E00E947F1881113E
:1013000017C0412F50E068E670E086EF93E00E943E
:10131000F51881130DC0F02EC02FDE2D8C2F8F19E4
:10132000811770F486EF93E00E94AA178993F6CF95
:1013300080E0DF91CF911F910F91FF90EF90089582
:1013400081E0F7CFCF93DF9300D000D0CDB7DEB7E9
:1013500041E0BE016C5F7F4F8FE00E946609382F2D
:10136000882309F43CC08C8187FD4AC043E0BE015C
:101370006F5F7F4F80E00E946609382F882379F1E4
:101380002B81922F9F7026FF32C024FB882780F983
:101390004AE0849F900D1124892F6CE00E940C1963
:1013A00025FD945F2A81822F8F7782958F705AE076
:1013B0002F70859F200D11242C3310F58981482F23
:1013C0004F7742954F708F70459F800D11248C335D
:1013D000B8F49093C9022093C8028093C702832F68
:1013E0000F900F900F900F90DF91CF9108952F7372
:1013F00022952F708AE0289F900D1124983190F249
:1014000030E0EDCFCF9360E087E00E94B70F61E05E
:1014100087E00E947B0F60E086E00E94B70F61E0EA
:1014200086E00E947B0F61E08DE00E947B0F61E00F
:101430008AE00E947B0F61E089E00E947B0F0E949E
:10144000C204C4B714BE88E19FE00FB6F894A89513
:10145000809360000FBE9093600062E082E00E9483
:101460007B0F62E083E00E947B0F62E084E00E94D9
:101470007B0F26E040E052EC61E070E082E593E013
:101480000E94A11466EA71E082E593E00E940016D2
:10149000C3FF06C066E971E082E593E00E94001692
:1014A000C2FF06C065E871E082E593E00E94001685
:1014B00086EF93E00E945F1840EA56E861E070E032
:1014C00086EF93E00E9471180E94320380E290E060
:1014D0000E94EA19853A79F483E08093CD0280EC8A
:1014E00091E090932501809324016AE171E082E507
:1014F00093E00E9400160E94A2098093CB02811102
:1015000006C063ED70E082E593E00E9400160E9441
:10151000D106CF910C94E006EF92FF920F931F93A8
:10152000CF93DF9300D000D01F92CDB7DEB78831C4
:1015300070F0E12C8E2D0F900F900F900F900F9068
:10154000DF91CF911F910F91FF90EF9008956C3331
:1015500080F74C3370F7142F062FF82E2AE0842FD3
:10156000622F0E940C1930E1839FA0011124942B5B
:101570009983802F0E940C1930E1839FA0011124D0
:10158000942B9A838F2D0E940C1940E1849F900127
:101590001124922B9B8343E0BE016F5F7F4F80E05D
:1015A0000E943709E82E882321F241E0BE016B5FDB
:1015B0007F4F8EE00E946609882351F08D818F77DE
:1015C0008D8341E0BE016B5F7F4F8EE00E94370943
:1015D00041E0BE016C5F7F4F8FE00E946609882367
:1015E00051F08C818F778C8341E0BE016C5F7F4F1F
:1015F0008FE00E943709F092C9020093C80210934D
:10160000C70281E08093CB0295CFCF92DF92EF9219
:10161000FF921F93CF93DF9388E191E00E946906C8
:10162000C82F8CE091E00E946906182F80E091E0BD
:101630000E946906D82FC11103C0111101C0811188
:101640000E94D1068091CC02882311F10E94C00E25
:10165000C090B902D090BA02E090BB02F090BC02F8
:101660006C197D098E099F0961367A4E81059105B5
:1016700078F01092CC0263EE73E082E593E0DF91A4
:10168000CF911F91FF90EF90DF90CF900C940016B8
:101690008091CC02811150C0C23031F0C13009F5C7
:1016A0008091CB0281111DC081E08093CC020E9409
:1016B000C00E6093B9027093BA028093BB029093FC
:1016C000BC028091CB02811106C01092C902109217
:1016D000C8021092C70268EB73E082E593E00E94B3
:1016E00000161230A1F48091CF0291E089278093F7
:1016F000CF020E947C038091CF026EE973E08823C1
:1017000011F06BEA73E082E593E00E940016D2309C
:1017100009F044C08091D00291E089278093D002E3
:101720000E947C038091D0026BE773E0882309F468
:10173000A4CF6DE873E0A1CFC11104C0111102C0A4
:10174000DD2361F10E94C00E6093B9027093BA026A
:101750008093BB029093BC02113009F040C080918D
:10176000CC02813019F58091C90290E0019668E1C0
:1017700070E00E943A198093C902D13051F48091EF
:10178000C90290E0479668E170E00E943A198093A0
:10179000C902C13019F482E08093CC02DF91CF916D
:1017A0001F91FF90EF90DF90CF9008958091C80235
:1017B00090E001966CE370E00E943A198093C802B1
:1017C000D13051F48091C80290E0CB966CE370E088
:1017D0000E943A198093C802C13001F70DC0D13080
:1017E00029F48091CC02813069F7C9CFC130B1F6BC
:1017F0008091CC02813079F21092CC0240E060916D
:10180000C8028091C9020E948C0A69E673E08111C6
:1018100034CF68E573E031CFCF93DF9300D000D0B1
:10182000CDB7DEB780919002E82FF0E0EF56FD4F84
:10183000108290919102943589F5909192029032A4
:1018400069F58A3058F1BE016C5F7F4F83E992E001
:101850000E94D907882311F1BE016D5F7F4F86E991
:1018600092E00E94D9078823C9F0BE016E5F7F4FC6
:1018700089E992E00E94D907882381F04A816B812F
:101880008C810E948C0A67EB72E0882311F06BEC6C
:1018900072E082E593E00E94001646C060EE71E0BF
:1018A00081E992E00E94D319892B69F481E090913B
:1018B0009102913309F080E08093CF020E947C0373
:1018C00064EB72E0E6CF63EE71E081E992E00E94A2
:1018D000D319892B59F366EE71E081E992E00E94F9
:1018E000D319892B39F41092D0020E947C0361EB4A
:1018F00072E0CFCF46E050E060EF71E081E992E026
:101900000E94DC19892BC9F06EEF71E081E992E049
:101910000E94D319892B09F064C081E08093CA0228
:1019200087EF91E00E942B05109290020F900F908C
:101930000F900F90DF91CF910895809190028131A7
:1019400018F3BE016C5F7F4F87E992E00E94D907D0
:101950008823D1F2BE016D5F7F4F8AE992E00E9439
:10196000D907882389F2BE016E5F7F4F8DE992E02F
:101970000E94D907882341F2BE016F5F7F4F80EA42
:1019800092E00E94D907882309F4BECF9C81983148
:1019900008F0BACF2B812C3308F0B6CF5A815831DA
:1019A00008F0B2CF89818C3308F0AECF31E03093AC
:1019B000D0024CE330E0949F200D311D1124309370
:1019C000D2022093D10290E0549F800D911D1124EA
:1019D0009093D4028093D3020E947C036EEA72E05B
:1019E00058CF64E072E081E992E00E94D319892B1C
:1019F00029F41092CA026BEA72E04BCF68E072E001
:101A000081E992E00E94D319892BA1F460E080E281
:101A100090E00E94F2198091CD02833011F410926F
:101A2000CD0288E792E0909325018093240161E440
:101A300072E02FCF63E172E081E992E00E94D31956
:101A4000892B19F4109226016FCF6CE172E081E9C5
:101A500092E00E94D319892B21F08091900281118C
:101A600003C00E94E00660CF63ED71E012CF82E513
:101A700093E00E94C713892BE9F082E593E00E946E
:101A8000E1138D30A1F38A3019F40E940C0CEFCFD2
:101A9000E0919002EF3158F79FE9980F9A3108F4DE
:101AA000805291E09E0F90939002F0E0EF56FD4F30
:101AB0008083DDCF08950F931F93A8950E94370D63
:101AC0000E94050B0E94C00E00918C0210918D02A5
:101AD00020918E0230918F02601B710B820B930B51
:101AE000643671058105910598F18091CC028111D0
:101AF0002FC00E94C00E60938C0270938D02809361
:101B00008E0290938F020E94A209811158C0809189
:101B1000CB02882341F01092CB0260EA70E082E5AC
:101B200093E00E9400168091CB02882389F0809177
:101B3000C70290912801891759F09091C80291111C
:101B400007C0811105C08091260187FD10922601F2
:101B50000E94EE079091CD02882309F46BC0911189
:101B600002C00E9486050E94C3058091BD028823A1
:101B700061F01092BD0268E670E082E593E00E9499
:101B800000168EE492E00E946005809126019091FB
:101B9000CD02923009F04BC087FF18C0809126011A
:101BA00087FF3EC0909128018091C702981304C01E
:101BB0008091CC028823A1F10E94420831C081E0CB
:101BC0008093CB02B0CF83E292E03EC00E94C00E71
:101BD0000091B1021091B2022091B3023091B4028F
:101BE000601B710B820B930B97FDD8CF0E94C00E28
:101BF00068537F4F8F4F9F4F6093B1027093B20233
:101C00008093B3029093B4020E944208809126010F
:101C10008F5F809326018A301CF08FEF809326011E
:101C20008091C702809328011F910F91089587FF2B
:101C3000F4CFF6CF9150923008F095CF8091CA0240
:101C4000882309F288E792E00E942B058CCF089543
:101C50001F920F920FB60F9211242F933F934F9321
:101C60005F936F937F938F939F93AF93BF93EF9304
:101C7000FF93E0912901F0912A010995FF91EF91DD
:101C8000BF91AF919F918F917F916F915F914F9194
:101C90003F912F910F900FBE0F901F9018951F929C
:101CA0000F920FB60F9211242F933F934F935F9390
:101CB0006F937F938F939F93AF93BF93EF93FF9314
:101CC000E0912B01F0912C010995FF91EF91BF91CB
:101CD000AF919F918F917F916F915F914F913F91C4
:101CE0002F910F900FBE0F901F9018951F920F927B
:101CF0000FB60F9211242F933F938F939F93AF931F
:101D0000BF938091D6029091D702A091D802B09152
:101D1000D9023091D50223E0230F2D3758F50196D3
:101D2000A11DB11D2093D5028093D6029093D702B6
:101D3000A093D802B093D9028091DA029091DB028D
:101D4000A091DC02B091DD020196A11DB11D80932E
:101D5000DA029093DB02A093DC02B093DD02BF9124
:101D6000AF919F918F913F912F910F900FBE0F9048
:101D70001F90189526E8230F0296A11DB11DD2CF02
:101D80002FB7F8946091D6027091D7028091D80253
:101D90009091D9022FBF08953FB7F8948091DA024D
:101DA0009091DB02A091DC02B091DD0226B5A89BE8
:101DB00005C02F3F19F00196A11DB11D3FBFBA2FDD
:101DC000A92F982F8827BC01CD01620F711D811D9D
:101DD000911D42E0660F771F881F991F4A95D1F722
:101DE00008958230910538F0880F991F880F991F48
:101DF00005970197F1F70895789484B5826084BDC2
:101E000084B5816084BD85B5826085BD85B58160FE
:101E100085BDEEE6F0E0808181608083E1E8F0E05E
:101E20001082808182608083808181608083E0E88D
:101E3000F0E0808181608083E1EBF0E0808184606C
:101E40008083E0EBF0E0808181608083EAE7F0E06E
:101E500080818460808380818260808380818160D2
:101E600080838081806880831092C10008958E30C5
:101E700008F08E5020912D0190E4299F90011124AB
:101E80008770822B80937C0080917A00806480939D
:101E90007A0080917A0086FDFCCF80917800909145
:101EA00079000895833081F028F4813099F08230F0
:101EB000A9F008958730A9F08830C9F08430B1F4D2
:101EC000809180008F7D03C0809180008F77809308
:101ED0008000089584B58F7784BD089584B58F7D83
:101EE000FBCF8091B0008F778093B00008958091F0
:101EF000B0008F7DF9CFCF93DF9390E0FC01ED57D9
:101F0000FA4F249189569A4FFC0184918823C9F095
:101F100090E0880F991FFC01E154FA4FA591B4910C
:101F2000FC01EB54FA4FC591D49161110DC09FB7DC
:101F3000F8948C91209582238C9388812823288380
:101F40009FBFDF91CF910895623051F49FB7F8940D
:101F50003C91822F809583238C93E8812E2BEFCFA9
:101F60008FB7F894EC912E2B2C938FBFEACF1F9351
:101F7000CF93DF93282F30E0F901E159FA4F849194
:101F8000F901ED57FA4FD491F901E956FA4FC4918E
:101F9000CC23A9F0162F81110E94520FEC2FF0E0F4
:101FA000EE0FFF1FEB54FA4FA591B4918FB7F89441
:101FB000EC91111108C0D095DE23DC938FBFDF9127
:101FC000CF911F910895DE2BF8CFCF93DF93282F69
:101FD00030E0F901E159FA4F8491F901ED57FA4FD8
:101FE000D491F901E956FA4FC491CC23A1F08111A3
:101FF0000E94520FEC2FF0E0EE0FFF1FE555FA4F55
:10200000A591B491EC91ED2381E090E009F480E09A
:10201000DF91CF91089580E090E0FACF10925103C4
:1020200081E080934F0310924E0361E082E10E94B1
:10203000B70F61E083E10E94B70FE9EBF0E0808128
:102040008E7F808380818D7F808388E48093B80039
:1020500085E48093BC000895ECEBF0E080818A7BFE
:10206000808360E082E10E94B70F60E083E10C941E
:10207000B70F9B01AC0160E074E284EF90E00E9436
:102080004E19205131094109510956954795379507
:1020900027952093B800089520910003260F332739
:1020A000331F21323105ECF420915103FC0190E003
:1020B00080E0243069F082E00895A091000321912E
:1020C000AC014E5F5C4FA40FB52FB11D2C93019650
:1020D000861798F380910003680F6093000380E0F7
:1020E000089581E0089590934503809344030895F3
:1020F0009093470380934603089585EC8093BC003A
:10210000109251030895CF93DF9391E09093490388
:10211000882361F0C091B800D091BA000E942C10C1
:102120000E940E10D093BA00C093B800DF91CF91F7
:1021300008954F925F926F927F928F929F92AF928B
:10214000BF92CF92DF92EF92FF920F931F93CF93A4
:10215000DF93D82F162F072FC42FB22E413208F04D
:10216000A3C00E94CC0E6B017C01809151038111B0
:1021700076C081E080935103B0924F039FEF90931C
:10218000DE02109223039C0F90932203809350034E
:1021900080915003DD0FD82BD093500380914E03D4
:1021A000813009F083C010924E030E94CC0E6B0167
:1021B0007C01809150038093BB0080914A039091F1
:1021C0004B03A0914C03B0914D03892B8A2B8B2B91
:1021D000A1F00E94CC0E80904A0390904B03A090F7
:1021E0004C03B0904D036C197D098E099F0986162A
:1021F0009706A806B90608F453C08091BC0083FD79
:10220000D8CF85EC8093BC000E94CC0E6B017C0182
:1022100080915103813009F44BC0809123038C17C6
:1022200010F4C0912303A4E2B3E0912FE12FF02F2B
:102230008E2F891B8C1708F45DC08C2FDF91CF91F6
:102240001F910F91FF90EF90DF90CF90BF90AF90D4
:102250009F908F907F906F905F904F9008958091A6
:102260004A0390914B03A0914C03B0914D03892BED
:102270008A2B8B2B09F479CF0E94CC0E40904A0315
:1022800050904B0360904C0370904D036C197D0986
:102290008E099F09461657066806790608F065CF2D
:1022A000809148030E948310C0E0C7CF85EEAACF7B
:1022B00080914A0390914B03A0914C03B0914D0340
:1022C000892B8A2B8B2B09F4A3CF0E94CC0E8090F4
:1022D0004A0390904B03A0904C03B0904D036C19AF
:1022E0007D098E099F0986169706A806B90608F08B
:1022F0008FCFD6CF8D9181939BCF4F925F926F926C
:102300007F928F929F92AF92BF92EF92FF920F9324
:102310001F93CF93DF93413208F0D9C0F22ED42F10
:10232000E72E162FC82F0E94CC0E4B015C01809126
:102330005103811170C082E08093510300934F03D9
:102340008FEF8093DE0210922303D0932203912F0C
:10235000A4E2B3E0E12FFE2D8E2F891B8D1708F428
:102360008FC01092500380915003CC0FC82BC093A4
:10237000500380914E03813009F085C010924E03C6
:102380000E94CC0E4B015C01809150038093BB00F6
:1023900080914A0390914B03A0914C03B0914D035F
:1023A000892B8A2B8B2BA1F00E94CC0E00914A0323
:1023B00010914B0320914C0330914D03681979091A
:1023C0008A099B09061717072807390708F444C02C
:1023D0008091BC0083FDD8CF85EC8093BC000E9427
:1023E000CC0E4B015C01FF2029F08091510382301B
:1023F00009F44BC08091DE028F3F09F46AC08091DE
:10240000DE02803209F467C08091DE02803309F475
:1024100064C084E026C080914A0390914B03A09150
:102420004C03B0914D03892B8A2B8B2B09F47FCF62
:102430000E94CC0E40904A0350904B0360904C0396
:1024400070904D03681979098A099B094616570649
:102450006806790608F06BCF809148030E948310CC
:1024600085E0DF91CF911F910F91FF90EF90BF908A
:10247000AF909F908F907F906F905F904F90089556
:1024800081918D9369CF85EEA8CF80914A03909179
:102490004B03A0914C03B0914D03892B8A2B8B2BBE
:1024A00009F4A1CF0E94CC0E00914A0310914B0376
:1024B00020914C0330914D03681979098A099B09D1
:1024C000061717072807390708F08DCFC5CF81E019
:1024D000C8CF80E0C6CF82E0C4CF83E0C2CF85ED15
:1024E0008093BC0080914A0390914B03A0914C03D0
:1024F000B0914D030796A11DB11D23E0B695A79598
:10250000979587952A95D1F72091BC0024FD03C0AB
:1025100010925103089540914A0350914B036091EA
:102520004C0370914D03452B462B472B69F30097C5
:10253000A105B10541F02AE22A95F1F700C0019703
:10254000A109B109E1CF809148030C9483101F9237
:102550000F920FB60F9211242F933F934F935F93D7
:102560006F937F938F939F93AF93BF93EF93FF935B
:102570008091B900887F803609F44CC008F03FC0D4
:10258000883209F4A8C018F5803109F49CC0B8F469
:10259000882309F4F9C0883009F495C0FF91EF91C0
:1025A000BF91AF919F918F917F916F915F914F916B
:1025B0003F912F910F900FBE0F901F90189588316B
:1025C00009F489C0803251F78093DE0215C080344F
:1025D00009F49EC048F48033B9F38833F9F6809348
:1025E000DE020E947D10DACF803509F485C088357F
:1025F00009F496C0883491F60E946F12CFCF8839C3
:1026000009F48CC038F5883729F050F4883611F079
:10261000803721F683E0809351031092DF0257C088
:10262000883809F47BC0803919F0803809F0B6CFBA
:102630008091DF02803208F071C0E091DF0281E01A
:102640008E0F8093DF028091BB00F0E0E052FD4FDF
:1026500080833DC0803B39F0E0F4803A09F479C0D2
:10266000883A09F09BCF84E08093510310920103D4
:1026700010920003E0914603F09147030995809181
:10268000000381110FC081E08093000310920203C8
:1026900009C0803C09F476C0883C09F473C0883BCB
:1026A00009F07CCFE091010381E08E0F809301035C
:1026B000F0E0EE5FFC4F80818093BB0090910103BE
:1026C0008091000329C0809150038093BB0085EC6A
:1026D0008093BC0063CF90912303809122039817CD
:1026E00058F5E091230381E08E0F80932303F0E0FF
:1026F000EC5DFC4F8081E9CFE091230381E08E0FF8
:10270000809323038091BB00F0E0EC5DFC4F80835D
:1027100090912303809122039817C8F285E8D8CFBF
:10272000E091230381E08E0F809323038091BB000F
:10273000F0E0EC5DFC4F808380914F0381115CCF12
:1027400081E080934E0384EA8093BC001092510391
:1027500025CF0E947D108091DF02803230F4E0911D
:10276000DF02F0E0E052FD4F10826091DF0270E086
:10277000E0914403F091450380EE92E009951092B8
:10278000DF020CCF85ECE0CF1092DE0235CFFC01EA
:10279000918D228D892F90E0805C9F4F821B910943
:1027A0008F7399270895FC01918D828D981731F0D0
:1027B000828DE80FF11D858D90E008958FEF9FEFDA
:1027C0000895FC01918D828D981761F0A28DAE0F56
:1027D000BF2FB11D5D968C91928D9F5F9F73928FDD
:1027E00090E008958FEF9FEF0895FC01538D448D85
:1027F000252F30E0842F90E0821B930B541710F0AC
:10280000CF960895019708958BE595E1892B49F0BE
:1028100080E090E0892B29F00E945B1581110C94D7
:1028200000000895FC01A48DA80FB92FB11DA35A73
:10283000BF4F2C91848D90E001968F739927848FE0
:10284000A689B7892C93A089B1898C918370806403
:102850008C93938D848D981306C00288F389E02DA4
:1028600080818F7D80830895CF93DF93EC01888DE5
:102870008823B9F0AA89BB89E889F9898C9185FDFB
:1028800003C0808186FD0DC00FB607FCF7CF8C9189
:1028900085FFF2CF808185FFEDCFCE010E9412141B
:1028A000E9CFDF91CF910895EF92FF920F931F939D
:1028B000CF93DF93EC0181E0888F9B8D8C8D9813F3
:1028C0001AC0E889F989808185FF15C09FB7F894FF
:1028D000EE89FF896083E889F9898081837080644B
:1028E00080839FBF81E090E0DF91CF911F910F9196
:1028F000FF90EF900895F62E0B8D10E00F5F1F4FA5
:102900000F731127E02E8C8D8E110CC00FB607FCB3
:10291000FACFE889F989808185FFF5CFCE010E9441
:102920001214F1CFEB8DEC0FFD2FF11DE35AFF4F89
:10293000F0829FB7F8940B8FEA89FB8980818062CF
:10294000CFCFCF92DF92EF92FF921F93CF93DF937F
:10295000EC016A017B01122FE889F98982E080830A
:10296000C11481EED806E104F104A1F060E079E041
:102970008DE390E0A70196010E944E192150310984
:10298000410951095695479537952795211580E1BD
:10299000380798F0E889F989108260E874E88EE1D8
:1029A00090E0A70196010E944E192150310941097A
:1029B00051095695479537952795EC85FD853083C8
:1029C000EE85FF852083188EEC89FD891083EA89C6
:1029D000FB89808180618083EA89FB8980818860AE
:1029E0008083EA89FB89808180688083EA89FB890A
:1029F00080818F7D8083DF91CF911F91FF90EF9039
:102A0000DF90CF9008951F920F920FB60F9211246E
:102A10002F938F939F93EF93FF93E0916203F09135
:102A200063038081E0916803F091690382FD1BC01C
:102A3000908180916B038F5F8F7320916C0382175D
:102A400041F0E0916B03F0E0EE5AFC4F958F8093DC
:102A50006B03FF91EF919F918F912F910F900FBE7C
:102A60000F901F9018958081F4CF1F920F920FB690
:102A70000F9211242F933F934F935F936F937F9304
:102A80008F939F93AF93BF93EF93FF9382E593E070
:102A90000E941214FF91EF91BF91AF919F918F917E
:102AA0007F916F915F914F913F912F910F900FBE4A
:102AB0000F901F90189582E593E00E94C71321E0C4
:102AC000892B09F420E0822F0895E2E5F3E01382D8
:102AD000128288EE93E0A0E0B0E084839583A68321
:102AE000B78388E692E09183808385EC90E09587B8
:102AF000848784EC90E09787868780EC90E0918BC8
:102B0000808B81EC90E0938B828B82EC90E0958BB4
:102B1000848B86EC90E0978B868B118E128E138EB1
:102B2000148E089590E080E00895AF92BF92CF9206
:102B3000DF92EF92FF920F931F93CF93DF936C017D
:102B40007B018B01040F151FEB015E01AE18BF085E
:102B5000C017D10759F06991D601ED91FC91019010
:102B6000F081E02DC6010995892B79F7C501DF9128
:102B7000CF911F910F91FF90EF90DF90CF90BF907A
:102B8000AF900895FB0101900020E9F73197AF0164
:102B9000461B570BDC01ED91FC910280F381E02D87
:102BA0000994EF92FF920F931F93CF93DF938C01C1
:102BB0007B01D0E0C0E0F701EC0FFD1F64916623BC
:102BC00061F0D801ED91FC910190F081E02DC801F8
:102BD0000995892B11F02196EECFCE01DF91CF918F
:102BE0001F910F91FF90EF900895DC01ED91FC9102
:102BF0000190F081E02D099466E772E00C94C21513
:102C00000F931F93CF93DF93EC010E94D1158C019A
:102C1000CE010E94FC15800F911FDF91CF911F9173
:102C20000F9108950F931F93CF93DF938C01D0E002
:102C3000C0E06115710519F00E94C215EC01C801D0
:102C40000E94FC158C0F9D1FDF91CF911F910F915A
:102C500008958F929F92AF92BF92EF92FF920F933F
:102C60001F93CF93DF93CDB7DEB7A1970FB6F8943C
:102C7000DEBF0FBECDBF7C01FA01CB0119A222300D
:102C800008F42AE08E010F5D1F4F822E912CB12C8B
:102C9000A12CBF01A50194010E944E19F901CA019E
:102CA0006A300CF5605DD8016E938D01232B242BC7
:102CB000252B79F790E080E0109721F0BD01C70146
:102CC0000E94C215A1960FB6F894DEBF0FBECDBF0D
:102CD000DF91CF911F910F91FF90EF90BF90AF9038
:102CE0009F908F900895695CDECFCF92DF92EF9234
:102CF000FF920F931F93CF93DF932115310581F43A
:102D0000DC01ED91FC910190F081E02D642FDF91C9
:102D1000CF911F910F91FF90EF90DF90CF9009948A
:102D20002A30310501F52AE077FF1DC06A017B01D9
:102D3000EC016DE20E94F5158C0144275527BA017C
:102D40004C195D096E097F092AE0CE010E942916FF
:102D5000800F911FDF91CF911F910F91FF90EF9006
:102D6000DF90CF900895DF91CF911F910F91FF9049
:102D7000EF90DF90CF900C9429169A01AB01770F5A
:102D8000660B770B0C9475160F931F93CF93DF93FD
:102D9000EC010E94BD168C01CE010E94FC15800F33
:102DA000911FDF91CF911F910F910895211531054A
:102DB00041F4DC01ED91FC910190F081E02D642F54
:102DC00009940C9429169A01462F50E070E060E0B7
:102DD0000C94D6160F931F93CF93DF93EC010E94B0
:102DE000E3168C01CE010E94FC15800F911FDF912C
:102DF000CF911F910F9108959A01AB0170E060E0AF
:102E00000C94D616813039F018F0823051F00895C4
:102E100010926E00089580916F008D7F80936F00F7
:102E20000895809170008D7F8093700081E0809381
:102E3000B0008091B100887F84608093B1001092CF
:102E4000B3000895CF93C82F80912E01C8130DC0F1
:102E5000E9ECF5E084919FEF90932E010E94021718
:102E600060E08C2FCF910C94B70F8FEFF7CF1F92AC
:102E70000F920FB60F9211242F933F934F935F93AE
:102E80006F937F938F939F93AF93BF93EF93FF9332
:102E90008091F2039091F303A091F403B091F503B4
:102EA000892B8A2B8B2BD1F19091EF03E091F003CA
:102EB000F091F1038081892780838091F2039091C2
:102EC000F303A091F403B091F503181619061A063E
:102ED0001B069CF48091F2039091F303A091F403FC
:102EE000B091F5030197A109B1098093F203909382
:102EF000F303A093F403B093F503FF91EF91BF9117
:102F0000AF919F918F917F916F915F914F913F9181
:102F10002F910F900FBE0F901F90189580912E014A
:102F20000E942217EACF08950E94FC0E0E94931778
:102F30000E94020AC4E0D4E10E945B0D2097E1F3F5
:102F40000E940414F9CF80912A0490912B04891BCC
:102F5000990B089590912B0480912A042FEF3FEF55
:102F6000981748F4E92FF0E0E45DFB4F208130E052
:102F70009F5F90932B04C9010895E0912B048091E9
:102F80002A04E81730F4F0E0E45DFB4F808190E024
:102F900008958FEF9FEF08950895CF93DF93EC018D
:102FA000E0910204F09103043097F1F090912B042A
:102FB00080912A049817C0F090E0292F30E026175E
:102FC000370754F4DE01A20FB31F4C91245D3B4F31
:102FD000D9014C939F5FF1CF10922B0460932A0488
:102FE000CB01DF91CF910994DF91CF910895E091CA
:102FF0000404F0910504309729F01092080410920F
:10300000070409940895CF93DF931F92CDB7DEB7DD
:103010006983209106042223F9F0209107042032CD
:1030200058F021E030E0FC013383228390E080E01F
:103030000F90DF91CF91089580910804E82FF0E080
:10304000E75FFB4F998190838F5F809308048093A3
:10305000070481E090E0ECCF61E0CE0101960E9490
:103060004C10F7CFCF92DF92EF92FF920F931F9306
:10307000CF93DF937C01CB018A01209106042223A8
:1030800089F0EB016B01C40ED51ECC15DD0569F08E
:103090006991D701ED91FC910190F081E02DC7017C
:1030A0000995F3CF642F0E944C10C801DF91CF9196
:1030B0001F910F91FF90EF90DF90CF9008951092A5
:1030C0002B0410922A0410920804109207040E9404
:1030D0000E1087EF97E10E9478108DEC97E10C9429
:1030E0007310CB01BA010C94391081E0809306046F
:1030F00060932904109208041092070408950F9316
:10310000062F21E04091070469E074E080912904D2
:103110000E947D1110920804109207041092060478
:103120000F9108954F925F926F927F92AF92BF92EC
:10313000CF92EF92FF920F931F93CF93DF935C0197
:10314000F62ED42F28013901EE2019F10E947518AE
:10315000CE2DC43008F0C3E0C150B8F028E0C29FC3
:10316000C0011124A301920104C0569547953795DB
:1031700027958A95D2F7B901D501ED91FC9101907F
:10318000F081E02DC5010995E7CF60E0C5010E94FF
:103190007F184D2FD13208F040E22C2D6CE274E004
:1031A0008F2D0E94991010922B0480932A04DF9196
:1031B000CF911F910F91FF90EF90CF90BF90AF9064
:1031C0007F906F905F904F900895CF92EF920F9302
:1031D0001F93C22EE12C00E010E098010E9492188B
:1031E0001F910F91EF90CF90089521E00C94E51876
:1031F00061E00C947F18E6EFF3E01382128288EE10
:1032000093E0A0E0B0E084839583A683B7838DE745
:1032100092E0918380830895991B79E004C0991FFF
:10322000961708F0961B881F7A95C9F78095089520
:1032300087FB082E062687FD819567FD61950E9414
:103240000C190EF4919507FC81950895AA1BBB1BE0
:1032500051E107C0AA1FBB1FA617B70710F0A61B96
:10326000B70B881F991F5A95A9F780959095BC01B7
:10327000CD01089597FB072E16F4009407D077FD33
:1032800009D00E94261907FC05D03EF4909581953F
:103290009F4F0895709561957F4F0895A1E21A2E72
:1032A000AA1BBB1BFD010DC0AA1FBB1FEE1FFF1FEA
:1032B000A217B307E407F50720F0A21BB30BE40B3A
:1032C000F50B661F771F881F991F1A9469F7609581
:1032D0007095809590959B01AC01BD01CF0108953B
:1032E000A29FB001B39FC001A39F700D811D112447
:1032F000911DB29F700D811D1124911D0895002E06
:10330000083090F0982F872F762F652F542F432F5A
:10331000322F22270850F4CF220F331F441F551F8E
:10332000661F771F881F991F0A95B2F7002D089511
:1033300097FD1094002E083098F00850232F342F5A
:10334000452F562F672F782F892F912DF4CF159465
:1033500097958795779567955795479537952795CD
:103360000A95AAF71124002D08950024A7FD0094C2
:103370002A0F301D401D501D601D701D801D901DA9
:1033800008950024A7FD00942A1730054005500534
:1033900060057005800590050895EE0FFF1F0590EC
:1033A000F491E02D0994FB01DC018D9101908019CD
:1033B0000110D9F3990B0895FB01DC0141505040F5
:1033C00030F08D910190801919F40020B9F7881B15
:1033D000990B0895F999FECF92BD81BDF89A99276E
:1033E00080B50895262FF999FECF1FBA92BD81BDF1
:1033F00020BD0FB6F894FA9AF99A0FBE0196089577
:04340000F894FFCF6E
:1034040004000000000000000000000003000000B1
:1034140000000000000000000200000000000000A6
:10342400000000007802FF01FF270E270E01FFECC9
:1034340001B401BD010D0248562061626F7665201A
:10344400313930205600485620646964206E6F7408
:103454002072656163682031353020562028485633
:103464005F41524D2072656D6F7665643F20636FD6
:103474006E766572746572206661756C743F29009E
:103484004856207361676765642062656C6F7720B6
:10349400313530205620286F7665726C6F61642058
:1034A4006F7220636F6E76657274657220666175E3
:1034B4006C7429005354415254494E47004F4E00F6
:1034C4006661756C74206C61746368656420626500
:1034D400666F726520746869732072657365740021
:1034E400313200323400534C454550204F4646009B
:1034F400534C454550200073657269616C204856F1
:103504004F46460052554E00434C454152464155A4
:103514004C54004558455243495345005354415473
:10352400555300646973706C6179206E6F742077F1
:10353400616E7465642028736C656570206F7220F9
:10354400696E76616C69642074696D652900756EB5
:1035540073616665206672616D652072656A656374
:10356400746564000000000054149515F5133414B8
:10357400C713E113D3130D0A00000000000318322F
:0C358400189215CC17A317AA17BD17004A
:00000001FF
